:100000000C9434000C943E000C943E000C943E0082
:100010000C943E000C943E000C943E000C943E0068
:100020000C943E000C943E000C943E000C943E0058
:100030000C943E000C943E000C943E000C943E0048
:100040000C943E000C943E000C943E000C943E0038
:100050000C943E000C943E000C943E000C943E0028
:100060000C943E000C943E0011241FBECFEFD8E04C
:10007000DEBFCDBF0E944C000C9464000C940000C5
:1000800080E284B985B1806285B9089514BC85B3D6
:1000900085BB85E085BD08950E9440000E94460012
:1000A0002D9B05C085B18F7D85B98FE00AC085B1D4
:1000B000806285B9FACFA89B04C095B3916095BBC7
:0C00C00081508111F8CFECCFF894FFCFF5
:00000001FF
